{
  "contractName": "Election",
  "abi": [
    {
      "inputs": [],
      "payable": false,
      "stateMutability": "nonpayable",
      "type": "constructor"
    },
    {
      "constant": true,
      "inputs": [],
      "name": "admin",
      "outputs": [
        {
          "internalType": "address",
          "name": "",
          "type": "address"
        }
      ],
      "payable": false,
      "stateMutability": "view",
      "type": "function"
    },
    {
      "constant": true,
      "inputs": [
        {
          "internalType": "string",
          "name": "",
          "type": "string"
        }
      ],
      "name": "positions",
      "outputs": [
        {
          "internalType": "string",
          "name": "name",
          "type": "string"
        },
        {
          "internalType": "uint256",
          "name": "candidateCount",
          "type": "uint256"
        }
      ],
      "payable": false,
      "stateMutability": "view",
      "type": "function"
    },
    {
      "constant": true,
      "inputs": [
        {
          "internalType": "uint256",
          "name": "",
          "type": "uint256"
        }
      ],
      "name": "positionsList",
      "outputs": [
        {
          "internalType": "string",
          "name": "",
          "type": "string"
        }
      ],
      "payable": false,
      "stateMutability": "view",
      "type": "function"
    },
    {
      "constant": true,
      "inputs": [
        {
          "internalType": "address",
          "name": "",
          "type": "address"
        }
      ],
      "name": "voterDetails",
      "outputs": [
        {
          "internalType": "address",
          "name": "voterAddress",
          "type": "address"
        },
        {
          "internalType": "string",
          "name": "name",
          "type": "string"
        },
        {
          "internalType": "string",
          "name": "phone",
          "type": "string"
        },
        {
          "internalType": "bool",
          "name": "isVerified",
          "type": "bool"
        },
        {
          "internalType": "bool",
          "name": "isRegistered",
          "type": "bool"
        }
      ],
      "payable": false,
      "stateMutability": "view",
      "type": "function"
    },
    {
      "constant": true,
      "inputs": [
        {
          "internalType": "uint256",
          "name": "",
          "type": "uint256"
        }
      ],
      "name": "voters",
      "outputs": [
        {
          "internalType": "address",
          "name": "",
          "type": "address"
        }
      ],
      "payable": false,
      "stateMutability": "view",
      "type": "function"
    },
    {
      "constant": true,
      "inputs": [],
      "name": "getAdmin",
      "outputs": [
        {
          "internalType": "address",
          "name": "",
          "type": "address"
        }
      ],
      "payable": false,
      "stateMutability": "view",
      "type": "function"
    },
    {
      "constant": false,
      "inputs": [
        {
          "internalType": "string",
          "name": "_header",
          "type": "string"
        },
        {
          "internalType": "string",
          "name": "_slogan",
          "type": "string"
        }
      ],
      "name": "addCandidate",
      "outputs": [],
      "payable": false,
      "stateMutability": "nonpayable",
      "type": "function"
    },
    {
      "constant": false,
      "inputs": [
        {
          "internalType": "string",
          "name": "_adminName",
          "type": "string"
        },
        {
          "internalType": "string",
          "name": "_adminEmail",
          "type": "string"
        },
        {
          "internalType": "string",
          "name": "_adminTitle",
          "type": "string"
        },
        {
          "internalType": "string",
          "name": "_electionTitle",
          "type": "string"
        },
        {
          "internalType": "string",
          "name": "_organizationTitle",
          "type": "string"
        }
      ],
      "name": "setElectionDetails",
      "outputs": [],
      "payable": false,
      "stateMutability": "nonpayable",
      "type": "function"
    },
    {
      "constant": true,
      "inputs": [
        {
          "internalType": "string",
          "name": "_slogan",
          "type": "string"
        }
      ],
      "name": "getCandidatesByPosition",
      "outputs": [
        {
          "components": [
            {
              "internalType": "uint256",
              "name": "candidateId",
              "type": "uint256"
            },
            {
              "internalType": "string",
              "name": "header",
              "type": "string"
            },
            {
              "internalType": "string",
              "name": "slogan",
              "type": "string"
            },
            {
              "internalType": "uint256",
              "name": "voteCount",
              "type": "uint256"
            }
          ],
          "internalType": "struct Election.Candidate[]",
          "name": "",
          "type": "tuple[]"
        }
      ],
      "payable": false,
      "stateMutability": "view",
      "type": "function"
    },
    {
      "constant": true,
      "inputs": [],
      "name": "getPositionList",
      "outputs": [
        {
          "internalType": "string[]",
          "name": "",
          "type": "string[]"
        }
      ],
      "payable": false,
      "stateMutability": "view",
      "type": "function"
    },
    {
      "constant": true,
      "inputs": [],
      "name": "getAdminName",
      "outputs": [
        {
          "internalType": "string",
          "name": "",
          "type": "string"
        }
      ],
      "payable": false,
      "stateMutability": "view",
      "type": "function"
    },
    {
      "constant": true,
      "inputs": [],
      "name": "getAdminEmail",
      "outputs": [
        {
          "internalType": "string",
          "name": "",
          "type": "string"
        }
      ],
      "payable": false,
      "stateMutability": "view",
      "type": "function"
    },
    {
      "constant": true,
      "inputs": [],
      "name": "getAdminTitle",
      "outputs": [
        {
          "internalType": "string",
          "name": "",
          "type": "string"
        }
      ],
      "payable": false,
      "stateMutability": "view",
      "type": "function"
    },
    {
      "constant": true,
      "inputs": [],
      "name": "getElectionTitle",
      "outputs": [
        {
          "internalType": "string",
          "name": "",
          "type": "string"
        }
      ],
      "payable": false,
      "stateMutability": "view",
      "type": "function"
    },
    {
      "constant": true,
      "inputs": [],
      "name": "getOrganizationTitle",
      "outputs": [
        {
          "internalType": "string",
          "name": "",
          "type": "string"
        }
      ],
      "payable": false,
      "stateMutability": "view",
      "type": "function"
    },
    {
      "constant": true,
      "inputs": [],
      "name": "getTotalCandidate",
      "outputs": [
        {
          "internalType": "uint256",
          "name": "",
          "type": "uint256"
        }
      ],
      "payable": false,
      "stateMutability": "view",
      "type": "function"
    },
    {
      "constant": true,
      "inputs": [],
      "name": "getTotalVoter",
      "outputs": [
        {
          "internalType": "uint256",
          "name": "",
          "type": "uint256"
        }
      ],
      "payable": false,
      "stateMutability": "view",
      "type": "function"
    },
    {
      "constant": true,
      "inputs": [],
      "name": "getTotalPosition",
      "outputs": [
        {
          "internalType": "uint256",
          "name": "",
          "type": "uint256"
        }
      ],
      "payable": false,
      "stateMutability": "view",
      "type": "function"
    },
    {
      "constant": false,
      "inputs": [
        {
          "internalType": "string",
          "name": "_name",
          "type": "string"
        },
        {
          "internalType": "string",
          "name": "_phone",
          "type": "string"
        }
      ],
      "name": "registerAsVoter",
      "outputs": [],
      "payable": false,
      "stateMutability": "nonpayable",
      "type": "function"
    },
    {
      "constant": false,
      "inputs": [
        {
          "internalType": "bool",
          "name": "_verifedStatus",
          "type": "bool"
        },
        {
          "internalType": "address",
          "name": "voterAddress",
          "type": "address"
        }
      ],
      "name": "verifyVoter",
      "outputs": [],
      "payable": false,
      "stateMutability": "nonpayable",
      "type": "function"
    },
    {
      "constant": false,
      "inputs": [
        {
          "internalType": "uint256",
          "name": "candidateId",
          "type": "uint256"
        },
        {
          "internalType": "string",
          "name": "_slogan",
          "type": "string"
        }
      ],
      "name": "vote",
      "outputs": [],
      "payable": false,
      "stateMutability": "nonpayable",
      "type": "function"
    },
    {
      "constant": false,
      "inputs": [],
      "name": "endElection",
      "outputs": [],
      "payable": false,
      "stateMutability": "nonpayable",
      "type": "function"
    },
    {
      "constant": true,
      "inputs": [],
      "name": "getStart",
      "outputs": [
        {
          "internalType": "bool",
          "name": "",
          "type": "bool"
        }
      ],
      "payable": false,
      "stateMutability": "view",
      "type": "function"
    },
    {
      "constant": true,
      "inputs": [],
      "name": "getEnd",
      "outputs": [
        {
          "internalType": "bool",
          "name": "",
          "type": "bool"
        }
      ],
      "payable": false,
      "stateMutability": "view",
      "type": "function"
    }
  ],
  "bytecode": "0x608060405234801561001057600080fd5b50336000806101000a81548173ffffffffffffffffffffffffffffffffffffffff021916908373ffffffffffffffffffffffffffffffffffffffff1602179055506000600181905550600060028190555060006003819055506000600460006101000a81548160ff0219169083151502179055506000600460016101000a81548160ff021916908315150217905550612491806100ae6000396000f3fe608060405234801561001057600080fd5b50600436106101585760003560e01c806364d198a1116100c3578063be081b6f1161007c578063be081b6f146103aa578063c5292c67146103c8578063da58c7d9146103e6578063e173730c14610416578063f851a44014610434578063fee0d19a1461045257610158565b806364d198a1146102e3578063676f86b0146103015780636e9960c314610332578063831318f1146103505780639f05a36d1461036e578063a5d3157e1461038c57610158565b80634834317511610115578063483431751461021d578063506b8e0a1461023b57806357a84b9d146102575780635938750d1461027557806359f78468146102a957806361806886146102b357610158565b80630b93400e1461015d5780630e2354cf1461017b5780632410847514610199578063253e74e2146101b557806326541b56146101d15780633e259359146101ed575b600080fd5b61016561046e565b6040516101729190612219565b60405180910390f35b610183610478565b60405161019091906121a7565b60405180910390f35b6101b360048036036101ae9190810190611d6b565b61051d565b005b6101cf60048036036101ca9190810190611c53565b61072e565b005b6101eb60048036036101e69190810190611be7565b610881565b005b61020760048036036102029190810190611d42565b610b3b565b6040516102149190612185565b60405180910390f35b610225610beb565b60405161023291906121a7565b60405180910390f35b61025560048036036102509190810190611b29565b610c90565b005b61025f610d47565b60405161026c9190612219565b60405180910390f35b61028f600480360361028a9190810190611b00565b610d51565b6040516102a09594939291906120c5565b60405180910390f35b6102b1610ef1565b005b6102cd60048036036102c89190810190611ba6565b610f82565b6040516102da9190612148565b60405180910390f35b6102eb6111e7565b6040516102f89190612219565b60405180910390f35b61031b60048036036103169190810190611b65565b6111f1565b6040516103299291906121c9565b60405180910390f35b61033a6112c3565b60405161034791906120aa565b60405180910390f35b6103586112ec565b60405161036591906121a7565b60405180910390f35b610376611391565b604051610383919061216a565b60405180910390f35b6103946113a8565b6040516103a19190612126565b60405180910390f35b6103b26114cc565b6040516103bf91906121a7565b60405180910390f35b6103d0611571565b6040516103dd919061216a565b60405180910390f35b61040060048036036103fb9190810190611d42565b611588565b60405161040d91906120aa565b60405180910390f35b61041e6115c4565b60405161042b91906121a7565b60405180910390f35b61043c611669565b60405161044991906120aa565b60405180910390f35b61046c60048036036104679190810190611be7565b61168e565b005b6000600354905090565b606060076000018054600181600116156101000203166002900480601f0160208091040260200160405190810160405280929190818152602001828054600181600116156101000203166002900480156105135780601f106104e857610100808354040283529160200191610513565b820191906000526020600020905b8154815290600101906020018083116104f657829003601f168201915b5050505050905090565b60011515600d60003373ffffffffffffffffffffffffffffffffffffffff1673ffffffffffffffffffffffffffffffffffffffff16815260200190815260200160002060030160009054906101000a900460ff1615151461057d57600080fd5b60001515600d60003373ffffffffffffffffffffffffffffffffffffffff1673ffffffffffffffffffffffffffffffffffffffff168152602001908152602001600020600401826040516105d19190612093565b908152602001604051809103902060009054906101000a900460ff1615151461062f576040517f08c379a0000000000000000000000000000000000000000000000000000000008152600401610626906121f9565b60405180910390fd5b60011515600460009054906101000a900460ff1615151461064f57600080fd5b60001515600460019054906101000a900460ff1615151461066f57600080fd5b60016005826040516106819190612093565b90815260200160405180910390206002016000848152602001908152602001600020600301600082825401925050819055506001600d60003373ffffffffffffffffffffffffffffffffffffffff1673ffffffffffffffffffffffffffffffffffffffff168152602001908152602001600020600401826040516107059190612093565b908152602001604051809103902060006101000a81548160ff0219169083151502179055505050565b6000809054906101000a900473ffffffffffffffffffffffffffffffffffffffff1673ffffffffffffffffffffffffffffffffffffffff163373ffffffffffffffffffffffffffffffffffffffff161461078757600080fd5b6040518060a0016040528086815260200185815260200184815260200183815260200182815250600760008201518160000190805190602001906107cc92919061185b565b5060208201518160010190805190602001906107e992919061185b565b50604082015181600201908051906020019061080692919061185b565b50606082015181600301908051906020019061082392919061185b565b50608082015181600401908051906020019061084092919061185b565b509050506001600460006101000a81548160ff0219169083151502179055506000600460016101000a81548160ff0219169083151502179055505050505050565b6000809054906101000a900473ffffffffffffffffffffffffffffffffffffffff1673ffffffffffffffffffffffffffffffffffffffff163373ffffffffffffffffffffffffffffffffffffffff16146108da57600080fd5b6108e26118db565b6040518060800160405280600154815260200184815260200183815260200160008152509050600060058360405161091a9190612093565b908152602001604051809103902090506000816000018054600181600116156101000203166002900490501115610a08578160058460405161095c9190612093565b90815260200160405180910390206002016000836001015481526020019081526020016000206000820151816000015560208201518160010190805190602001906109a892919061185b565b5060408201518160020190805190602001906109c592919061185b565b506060820151816003015590505060016005846040516109e59190612093565b908152602001604051809103902060010160008282540192505081905550610b25565b826006600060025481526020019081526020016000209080519060200190610a31929190611903565b5082600584604051610a439190612093565b90815260200160405180910390206000019080519060200190610a67929190611903565b5060016002600082825401925050819055506001600584604051610a8b9190612093565b90815260200160405180910390206001018190555081600584604051610ab19190612093565b90815260200160405180910390206002016000808152602001908152602001600020600082015181600001556020820151816001019080519060200190610af992919061185b565b506040820151816002019080519060200190610b1692919061185b565b50606082015181600301559050505b6001806000828254019250508190555050505050565b60066020528060005260406000206000915090508054600181600116156101000203166002900480601f016020809104026020016040519081016040528092919081815260200182805460018160011615610100020316600290048015610be35780601f10610bb857610100808354040283529160200191610be3565b820191906000526020600020905b815481529060010190602001808311610bc657829003601f168201915b505050505081565b606060076004018054600181600116156101000203166002900480601f016020809104026020016040519081016040528092919081815260200182805460018160011615610100020316600290048015610c865780601f10610c5b57610100808354040283529160200191610c86565b820191906000526020600020905b815481529060010190602001808311610c6957829003601f168201915b5050505050905090565b6000809054906101000a900473ffffffffffffffffffffffffffffffffffffffff1673ffffffffffffffffffffffffffffffffffffffff163373ffffffffffffffffffffffffffffffffffffffff1614610ce957600080fd5b81600d60008373ffffffffffffffffffffffffffffffffffffffff1673ffffffffffffffffffffffffffffffffffffffff16815260200190815260200160002060030160006101000a81548160ff0219169083151502179055505050565b6000600254905090565b600d6020528060005260406000206000915090508060000160009054906101000a900473ffffffffffffffffffffffffffffffffffffffff1690806001018054600181600116156101000203166002900480601f016020809104026020016040519081016040528092919081815260200182805460018160011615610100020316600290048015610e235780601f10610df857610100808354040283529160200191610e23565b820191906000526020600020905b815481529060010190602001808311610e0657829003601f168201915b505050505090806002018054600181600116156101000203166002900480601f016020809104026020016040519081016040528092919081815260200182805460018160011615610100020316600290048015610ec15780601f10610e9657610100808354040283529160200191610ec1565b820191906000526020600020905b815481529060010190602001808311610ea457829003601f168201915b5050505050908060030160009054906101000a900460ff16908060050160009054906101000a900460ff16905085565b6000809054906101000a900473ffffffffffffffffffffffffffffffffffffffff1673ffffffffffffffffffffffffffffffffffffffff163373ffffffffffffffffffffffffffffffffffffffff1614610f4a57600080fd5b6001600460016101000a81548160ff0219169083151502179055506000600460006101000a81548160ff021916908315150217905550565b60606000600583604051610f969190612093565b9081526020016040518091039020905060608160010154604051908082528060200260200182016040528015610fe657816020015b610fd3611983565b815260200190600190039081610fcb5790505b50905060008090505b82600101548110156111dc576110036118db565b60405180608001604052808560020160008581526020019081526020016000206000015481526020018560020160008581526020019081526020016000206001018054600181600116156101000203166002900480601f0160208091040260200160405190810160405280929190818152602001828054600181600116156101000203166002900480156110d85780601f106110ad576101008083540402835291602001916110d8565b820191906000526020600020905b8154815290600101906020018083116110bb57829003601f168201915b505050505081526020018560020160008581526020019081526020016000206002018054600181600116156101000203166002900480601f01602080910402602001604051908101604052809291908181526020018280546001816001161561010002031660029004801561118e5780601f106111635761010080835404028352916020019161118e565b820191906000526020600020905b81548152906001019060200180831161117157829003601f168201915b50505050508152602001856002016000858152602001908152602001600020600301548152509050808383815181106111c357fe5b6020026020010181905250508080600101915050610fef565b508092505050919050565b6000600154905090565b600581805160208101820180518482526020830160208501208183528095505050505050600091509050806000018054600181600116156101000203166002900480601f0160208091040260200160405190810160405280929190818152602001828054600181600116156101000203166002900480156112b35780601f10611288576101008083540402835291602001916112b3565b820191906000526020600020905b81548152906001019060200180831161129657829003601f168201915b5050505050908060010154905082565b60008060009054906101000a900473ffffffffffffffffffffffffffffffffffffffff16905090565b606060076001018054600181600116156101000203166002900480601f0160208091040260200160405190810160405280929190818152602001828054600181600116156101000203166002900480156113875780601f1061135c57610100808354040283529160200191611387565b820191906000526020600020905b81548152906001019060200180831161136a57829003601f168201915b5050505050905090565b6000600460019054906101000a900460ff16905090565b6060806002546040519080825280602002602001820160405280156113e157816020015b60608152602001906001900390816113cc5790505b50905060008090505b6002548110156114c457600660008281526020019081526020016000208054600181600116156101000203166002900480601f01602080910402602001604051908101604052809291908181526020018280546001816001161561010002031660029004801561149b5780601f106114705761010080835404028352916020019161149b565b820191906000526020600020905b81548152906001019060200180831161147e57829003601f168201915b50505050508282815181106114ac57fe5b602002602001018190525080806001019150506113ea565b508091505090565b606060076002018054600181600116156101000203166002900480601f0160208091040260200160405190810160405280929190818152602001828054600181600116156101000203166002900480156115675780601f1061153c57610100808354040283529160200191611567565b820191906000526020600020905b81548152906001019060200180831161154a57829003601f168201915b5050505050905090565b6000600460009054906101000a900460ff16905090565b600c818154811061159557fe5b906000526020600020016000915054906101000a900473ffffffffffffffffffffffffffffffffffffffff1681565b606060076003018054600181600116156101000203166002900480601f01602080910402602001604051908101604052809291908181526020018280546001816001161561010002031660029004801561165f5780601f106116345761010080835404028352916020019161165f565b820191906000526020600020905b81548152906001019060200180831161164257829003601f168201915b5050505050905090565b6000809054906101000a900473ffffffffffffffffffffffffffffffffffffffff1681565b6116966119ab565b6040518060a001604052803373ffffffffffffffffffffffffffffffffffffffff16815260200184815260200183815260200160001515815260200160011515815250905080600d60003373ffffffffffffffffffffffffffffffffffffffff1673ffffffffffffffffffffffffffffffffffffffff16815260200190815260200160002060008201518160000160006101000a81548173ffffffffffffffffffffffffffffffffffffffff021916908373ffffffffffffffffffffffffffffffffffffffff160217905550602082015181600101908051906020019061177e92919061185b565b50604082015181600201908051906020019061179b92919061185b565b5060608201518160030160006101000a81548160ff02191690831515021790555060808201518160050160006101000a81548160ff021916908315150217905550905050600c3390806001815401808255809150509060018203906000526020600020016000909192909190916101000a81548173ffffffffffffffffffffffffffffffffffffffff021916908373ffffffffffffffffffffffffffffffffffffffff160217905550506001600360008282540192505081905550505050565b828054600181600116156101000203166002900490600052602060002090601f016020900481019282601f1061189c57805160ff19168380011785556118ca565b828001600101855582156118ca579182015b828111156118c95782518255916020019190600101906118ae565b5b5090506118d791906119f4565b5090565b6040518060800160405280600081526020016060815260200160608152602001600081525090565b828054600181600116156101000203166002900490600052602060002090601f016020900481019282601f1061194457805160ff1916838001178555611972565b82800160010185558215611972579182015b82811115611971578251825591602001919060010190611956565b5b50905061197f91906119f4565b5090565b6040518060800160405280600081526020016060815260200160608152602001600081525090565b6040518060a00160405280600073ffffffffffffffffffffffffffffffffffffffff16815260200160608152602001606081526020016000151581526020016000151581525090565b611a1691905b80821115611a125760008160009055506001016119fa565b5090565b90565b600081359050611a2881612409565b92915050565b600081359050611a3d81612420565b92915050565b600082601f830112611a5457600080fd5b8135611a67611a6282612261565b612234565b91508082526020830160208301858383011115611a8357600080fd5b611a8e8382846123b6565b50505092915050565b600082601f830112611aa857600080fd5b8135611abb611ab68261228d565b612234565b91508082526020830160208301858383011115611ad757600080fd5b611ae28382846123b6565b50505092915050565b600081359050611afa81612437565b92915050565b600060208284031215611b1257600080fd5b6000611b2084828501611a19565b91505092915050565b60008060408385031215611b3c57600080fd5b6000611b4a85828601611a2e565b9250506020611b5b85828601611a19565b9150509250929050565b600060208284031215611b7757600080fd5b600082013567ffffffffffffffff811115611b9157600080fd5b611b9d84828501611a43565b91505092915050565b600060208284031215611bb857600080fd5b600082013567ffffffffffffffff811115611bd257600080fd5b611bde84828501611a97565b91505092915050565b60008060408385031215611bfa57600080fd5b600083013567ffffffffffffffff811115611c1457600080fd5b611c2085828601611a97565b925050602083013567ffffffffffffffff811115611c3d57600080fd5b611c4985828601611a97565b9150509250929050565b600080600080600060a08688031215611c6b57600080fd5b600086013567ffffffffffffffff811115611c8557600080fd5b611c9188828901611a97565b955050602086013567ffffffffffffffff811115611cae57600080fd5b611cba88828901611a97565b945050604086013567ffffffffffffffff811115611cd757600080fd5b611ce388828901611a97565b935050606086013567ffffffffffffffff811115611d0057600080fd5b611d0c88828901611a97565b925050608086013567ffffffffffffffff811115611d2957600080fd5b611d3588828901611a97565b9150509295509295909350565b600060208284031215611d5457600080fd5b6000611d6284828501611aeb565b91505092915050565b60008060408385031215611d7e57600080fd5b6000611d8c85828601611aeb565b925050602083013567ffffffffffffffff811115611da957600080fd5b611db585828601611a97565b9150509250929050565b6000611dcb8383611f59565b905092915050565b6000611ddf838361200b565b905092915050565b611df08161236e565b82525050565b6000611e01826122d9565b611e0b818561231f565b935083602082028501611e1d856122b9565b8060005b85811015611e595784840389528151611e3a8582611dbf565b9450611e4583612305565b925060208a01995050600181019050611e21565b50829750879550505050505092915050565b6000611e76826122e4565b611e808185612330565b935083602082028501611e92856122c9565b8060005b85811015611ece5784840389528151611eaf8582611dd3565b9450611eba83612312565b925060208a01995050600181019050611e96565b50829750879550505050505092915050565b611ee981612380565b82525050565b6000611efa826122fa565b611f048185612352565b9350611f148185602086016123c5565b611f1d816123f8565b840191505092915050565b6000611f33826122fa565b611f3d8185612363565b9350611f4d8185602086016123c5565b80840191505092915050565b6000611f64826122ef565b611f6e8185612341565b9350611f7e8185602086016123c5565b611f87816123f8565b840191505092915050565b6000611f9d826122ef565b611fa78185612352565b9350611fb78185602086016123c5565b611fc0816123f8565b840191505092915050565b6000611fd8600d83612352565b91507f416c726561647920766f746564000000000000000000000000000000000000006000830152602082019050919050565b60006080830160008301516120236000860182612075565b506020830151848203602086015261203b8282611f59565b915050604083015184820360408601526120558282611f59565b915050606083015161206a6060860182612075565b508091505092915050565b61207e816123ac565b82525050565b61208d816123ac565b82525050565b600061209f8284611f28565b915081905092915050565b60006020820190506120bf6000830184611de7565b92915050565b600060a0820190506120da6000830188611de7565b81810360208301526120ec8187611f92565b905081810360408301526121008186611f92565b905061210f6060830185611ee0565b61211c6080830184611ee0565b9695505050505050565b600060208201905081810360008301526121408184611df6565b905092915050565b600060208201905081810360008301526121628184611e6b565b905092915050565b600060208201905061217f6000830184611ee0565b92915050565b6000602082019050818103600083015261219f8184611f92565b905092915050565b600060208201905081810360008301526121c18184611eef565b905092915050565b600060408201905081810360008301526121e38185611f92565b90506121f26020830184612084565b9392505050565b6000602082019050818103600083015261221281611fcb565b9050919050565b600060208201905061222e6000830184612084565b92915050565b6000604051905081810181811067ffffffffffffffff8211171561225757600080fd5b8060405250919050565b600067ffffffffffffffff82111561227857600080fd5b601f19601f8301169050602081019050919050565b600067ffffffffffffffff8211156122a457600080fd5b601f19601f8301169050602081019050919050565b6000819050602082019050919050565b6000819050602082019050919050565b600081519050919050565b600081519050919050565b600081519050919050565b600081519050919050565b6000602082019050919050565b6000602082019050919050565b600082825260208201905092915050565b600082825260208201905092915050565b600082825260208201905092915050565b600082825260208201905092915050565b600081905092915050565b60006123798261238c565b9050919050565b60008115159050919050565b600073ffffffffffffffffffffffffffffffffffffffff82169050919050565b6000819050919050565b82818337600083830152505050565b60005b838110156123e35780820151818401526020810190506123c8565b838111156123f2576000848401525b50505050565b6000601f19601f8301169050919050565b6124128161236e565b811461241d57600080fd5b50565b61242981612380565b811461243457600080fd5b50565b612440816123ac565b811461244b57600080fd5b5056fea365627a7a7231582095d0127549b0471c0927a3377bd0ea7cf58550e28113d8e57ede20439e880e006c6578706572696d656e74616cf564736f6c63430005100040",
  "source": "// SPDX-License-Identifier: MIT\npragma solidity >=0.4.21 <0.9.0;\npragma experimental ABIEncoderV2;\n\ncontract Election {\n    address public admin;\n    uint256 candidateCount;\n    uint256 positionCount;\n    uint256 voterCount;\n    bool start;\n    bool end;\n\n    constructor() public {\n        // Initilizing default values\n        admin = msg.sender;\n        candidateCount = 0;\n        positionCount = 0;\n        voterCount = 0;\n        start = false;\n        end = false;\n    }\n\n    function getAdmin() public view returns (address) {\n        // Returns account address used to deploy contract (i.e. admin)\n        return admin;\n    }\n\n    modifier onlyAdmin() {\n        // Modifier for only admin access\n        require(msg.sender == admin);\n        _;\n    }\n    // Modeling a candidate\n    struct Candidate {\n        uint256 candidateId;\n        string header;\n        string slogan;\n        uint256 voteCount;\n    }\n\n    struct Position {\n        string name;\n        uint256 candidateCount;\n        mapping(uint256 => Candidate) candidates;\n    }\n\n    mapping(string => Position) public positions;\n    mapping(uint256 => string) public positionsList;\n\n    //mapping(uint256 => Candidate) public candidateDetails;\n    //mapping(string => Candidate) public candidates;\n    // Adding new candidates\n\n\n    function addCandidate(string memory _header, string memory _slogan)\n        public\n        // Only admin can add\n        onlyAdmin\n    {\n        Candidate memory newCandidate =\n            Candidate({\n                candidateId: candidateCount,\n                header: _header,\n                slogan: _slogan,\n                voteCount: 0\n            });\n\n        \n\n        Position storage position = positions[_slogan];\n        if (bytes(position.name).length > 0) {\n            \n             //require(bytes(position.candidates[candidateName].name).length == 0, \"Candidate already exists\");\n            positions[_slogan].candidates[position.candidateCount] = newCandidate;\n            positions[_slogan].candidateCount+=1;\n        }\n        else {\n            positionsList[positionCount] = _slogan;\n            positions[_slogan].name = _slogan;\n            positionCount+=1;\n            positions[_slogan].candidateCount=1;\n            positions[_slogan].candidates[0] = newCandidate;\n        }\n\n        \n\n        //require(bytes(position.name).length != 0, \"Invalid position\");\n\n        //require(position.candidates[candidateCount].candidateId, \"Candidate already exists\");\n        //candidateDetails[candidateCount] = newCandidate;\n        candidateCount += 1;\n\n    }\n\n    // Modeling a Election Details\n    struct ElectionDetails {\n        string adminName;\n        string adminEmail;\n        string adminTitle;\n        string electionTitle;\n        string organizationTitle;\n    }\n    ElectionDetails electionDetails;\n\n    function setElectionDetails(\n        string memory _adminName,\n        string memory _adminEmail,\n        string memory _adminTitle,\n        string memory _electionTitle,\n        string memory _organizationTitle\n    )\n        public\n        // Only admin can add\n        onlyAdmin\n    {\n        electionDetails = ElectionDetails(\n            _adminName,\n            _adminEmail,\n            _adminTitle,\n            _electionTitle,\n            _organizationTitle\n        );\n        start = true;\n        end = false;\n    }\n\n    // Get Elections details\n   \n    function getCandidatesByPosition(string memory _slogan) public view returns (Candidate[] memory) {\n\n        Position storage position = positions[_slogan];\n\n        Candidate[] memory candidatesList = new Candidate[](position.candidateCount);\n        \n        for (uint256 i=0;i<position.candidateCount;i++){\n            Candidate memory cand =\n                Candidate({\n                candidateId: position.candidates[i].candidateId,\n                header: position.candidates[i].header,\n                slogan: position.candidates[i].slogan,\n                voteCount: position.candidates[i].voteCount\n                });\n            candidatesList[i] = cand;\n        }\n\n        return candidatesList;\n    }\n    function getPositionList() public view returns (string[] memory) {\n\n        string[] memory ret = new string[](positionCount);\n        for (uint256 i=0;i<positionCount;i++){\n            ret[i] = positionsList[i];\n        }\n\n        return ret;\n    }\n    function getAdminName() public view returns (string memory) {\n        return electionDetails.adminName;\n    }\n\n    function getAdminEmail() public view returns (string memory) {\n        return electionDetails.adminEmail;\n    }\n\n    function getAdminTitle() public view returns (string memory) {\n        return electionDetails.adminTitle;\n    }\n\n    function getElectionTitle() public view returns (string memory) {\n        return electionDetails.electionTitle;\n    }\n\n    function getOrganizationTitle() public view returns (string memory) {\n        return electionDetails.organizationTitle;\n    }\n\n    // Get candidates count\n    function getTotalCandidate() public view returns (uint256) {\n        // Returns total number of candidates\n        return candidateCount;\n    }\n\n   // function getCandidates() public view returns (Position[] memory) {\n   //     Position[] memory ret = new Position[](positionCount);\n   //     for (uint i = 0; i < positionCount; i++) {\n   //         ret[i] = positions[i];\n   //     }\n   //     return ret;\n   // }\n\n    // Get voters count\n    function getTotalVoter() public view returns (uint256) {\n        // Returns total number of voters\n        return voterCount;\n    }\n    function getTotalPosition() public view returns (uint256) {\n        // Returns total number of voters\n        return positionCount;\n    }\n\n    // Modeling a voter\n    struct Voter {\n        address voterAddress;\n        string name;\n        string phone;\n        bool isVerified;\n        //bool hasVoted;\n        mapping(string => bool) hasVoted;\n        bool isRegistered;\n    }\n    address[] public voters; // Array of address to store address of voters\n    mapping(address => Voter) public voterDetails;\n\n    // Request to be added as voter\n    function registerAsVoter(string memory _name, string memory _phone) public {\n        Voter memory newVoter =\n            Voter({\n                voterAddress: msg.sender,\n                name: _name,\n                phone: _phone,\n                //hasVoted: false,\n                isVerified: false,\n                isRegistered: true\n            });\n        voterDetails[msg.sender] = newVoter;\n        voters.push(msg.sender);\n        voterCount += 1;\n        \n    }\n\n\n    // Verify voter\n    function verifyVoter(bool _verifedStatus, address voterAddress)\n        public\n        // Only admin can verify\n        onlyAdmin\n    {\n        voterDetails[voterAddress].isVerified = _verifedStatus;\n    }\n\n    // Vote\n    function vote(uint256 candidateId,string memory _slogan) public {\n        \n        require(voterDetails[msg.sender].isVerified == true);       \n        require(voterDetails[msg.sender].hasVoted[_slogan] == false,\"Already voted\");       \n        require(start == true);\n        require(end == false);\n        positions[_slogan].candidates[candidateId].voteCount += 1;\n\n\n        voterDetails[msg.sender].hasVoted[_slogan] = true;\n\n        //candidateDetails[candidateId].voteCount += 1;\n        //candidateDe[post].voted == true;\n    }\n\n    // End election\n    function endElection() public onlyAdmin {\n        end = true;\n        start = false;\n    }\n\n    // Get election start and end values\n    function getStart() public view returns (bool) {\n        return start;\n    }\n\n    function getEnd() public view returns (bool) {\n        return end;\n    }\n}\n",
  "sourcePath": "C:\\Users\\Visitor\\Desktop\\Ethereum-Voting-Machine-upstream\\contracts\\Election.sol",
  "compiler": {
    "name": "solc",
    "version": "0.5.16+commit.9c3226ce.Emscripten.clang"
  },
  "schemaVersion": "3.4.14",
  "updatedAt": "2023-06-21T16:26:26.084Z",
  "networkType": "ethereum",
  "devdoc": {
    "methods": {}
  },
  "userdoc": {
    "methods": {}
  }
}